{
  "contractName": "Credentials",
  "abi": [
    {
      "constant": true,
      "inputs": [],
      "name": "ref",
      "outputs": [
        {
          "name": "",
          "type": "uint256"
        }
      ],
      "payable": false,
      "stateMutability": "view",
      "type": "function",
      "signature": "0x21a78f68"
    },
    {
      "constant": false,
      "inputs": [],
      "name": "renounceOwnership",
      "outputs": [],
      "payable": false,
      "stateMutability": "nonpayable",
      "type": "function",
      "signature": "0x715018a6"
    },
    {
      "constant": true,
      "inputs": [],
      "name": "owner",
      "outputs": [
        {
          "name": "",
          "type": "address"
        }
      ],
      "payable": false,
      "stateMutability": "view",
      "type": "function",
      "signature": "0x8da5cb5b"
    },
    {
      "constant": true,
      "inputs": [],
      "name": "isOwner",
      "outputs": [
        {
          "name": "",
          "type": "bool"
        }
      ],
      "payable": false,
      "stateMutability": "view",
      "type": "function",
      "signature": "0x8f32d59b"
    },
    {
      "constant": false,
      "inputs": [
        {
          "name": "newOwner",
          "type": "address"
        }
      ],
      "name": "transferOwnership",
      "outputs": [],
      "payable": false,
      "stateMutability": "nonpayable",
      "type": "function",
      "signature": "0xf2fde38b"
    },
    {
      "inputs": [],
      "payable": false,
      "stateMutability": "nonpayable",
      "type": "constructor",
      "signature": "constructor"
    },
    {
      "anonymous": false,
      "inputs": [
        {
          "indexed": false,
          "name": "stopped",
          "type": "bool"
        }
      ],
      "name": "setEmergencyStatus",
      "type": "event",
      "signature": "0xb80163a972d6d188b018ca173efb8efff6c0744fd37e70a66d7cf75954ee03f4"
    },
    {
      "anonymous": false,
      "inputs": [
        {
          "indexed": false,
          "name": "ref",
          "type": "uint256"
        },
        {
          "indexed": true,
          "name": "ipfsHash",
          "type": "string"
        },
        {
          "indexed": false,
          "name": "status",
          "type": "uint256"
        },
        {
          "indexed": true,
          "name": "issuer",
          "type": "address"
        },
        {
          "indexed": true,
          "name": "holder",
          "type": "address"
        }
      ],
      "name": "setPending",
      "type": "event",
      "signature": "0x60dcbb7144aec62d4e99fb852f44ce8fd8d26d2d66fdf0abb14f2232e0394f04"
    },
    {
      "anonymous": false,
      "inputs": [
        {
          "indexed": false,
          "name": "ref",
          "type": "uint256"
        },
        {
          "indexed": true,
          "name": "ipfsHash",
          "type": "string"
        },
        {
          "indexed": false,
          "name": "status",
          "type": "uint256"
        },
        {
          "indexed": true,
          "name": "issuer",
          "type": "address"
        },
        {
          "indexed": true,
          "name": "holder",
          "type": "address"
        }
      ],
      "name": "setValid",
      "type": "event",
      "signature": "0x33eb881f107da4a2aef188ee43fd91615ef04a36489ecaffa40deb3a40bad291"
    },
    {
      "anonymous": false,
      "inputs": [
        {
          "indexed": false,
          "name": "ref",
          "type": "uint256"
        },
        {
          "indexed": true,
          "name": "ipfsHash",
          "type": "string"
        },
        {
          "indexed": false,
          "name": "status",
          "type": "uint256"
        },
        {
          "indexed": true,
          "name": "issuer",
          "type": "address"
        },
        {
          "indexed": true,
          "name": "holder",
          "type": "address"
        }
      ],
      "name": "setRevoked",
      "type": "event",
      "signature": "0xc993df28c2f971f840cb563fca1282c743beab17a382422cc48e9fc81222363d"
    },
    {
      "anonymous": false,
      "inputs": [
        {
          "indexed": false,
          "name": "ref",
          "type": "uint256"
        },
        {
          "indexed": true,
          "name": "ipfsHash",
          "type": "string"
        },
        {
          "indexed": false,
          "name": "status",
          "type": "uint256"
        },
        {
          "indexed": true,
          "name": "issuer",
          "type": "address"
        },
        {
          "indexed": true,
          "name": "holder",
          "type": "address"
        }
      ],
      "name": "fetchCredential",
      "type": "event",
      "signature": "0xa74994836a34e5ebddad615359c477a29c715e4ab9152811637f06a4e34ef26a"
    },
    {
      "anonymous": false,
      "inputs": [
        {
          "indexed": true,
          "name": "previousOwner",
          "type": "address"
        },
        {
          "indexed": true,
          "name": "newOwner",
          "type": "address"
        }
      ],
      "name": "OwnershipTransferred",
      "type": "event",
      "signature": "0x8be0079c531659141344cd1fd0a4f28419497f9722a3daafe3b4186f6b6457e0"
    },
    {
      "constant": false,
      "inputs": [],
      "name": "toggleContractActiveStatus",
      "outputs": [],
      "payable": false,
      "stateMutability": "nonpayable",
      "type": "function",
      "signature": "0x83206d77"
    },
    {
      "constant": false,
      "inputs": [
        {
          "name": "_ipfsHash",
          "type": "string"
        }
      ],
      "name": "createCredential",
      "outputs": [
        {
          "name": "",
          "type": "uint256"
        }
      ],
      "payable": false,
      "stateMutability": "nonpayable",
      "type": "function",
      "signature": "0xcb2ae486"
    },
    {
      "constant": false,
      "inputs": [
        {
          "name": "_ref",
          "type": "uint256"
        }
      ],
      "name": "issueCredential",
      "outputs": [],
      "payable": false,
      "stateMutability": "nonpayable",
      "type": "function",
      "signature": "0x7d4ee3df"
    },
    {
      "constant": false,
      "inputs": [
        {
          "name": "_ref",
          "type": "uint256"
        }
      ],
      "name": "revokeCredential",
      "outputs": [],
      "payable": false,
      "stateMutability": "nonpayable",
      "type": "function",
      "signature": "0x1b87278d"
    },
    {
      "constant": false,
      "inputs": [
        {
          "name": "_ref",
          "type": "uint256"
        }
      ],
      "name": "checkCredential",
      "outputs": [
        {
          "name": "",
          "type": "uint256"
        },
        {
          "name": "ipfsHash",
          "type": "string"
        },
        {
          "name": "status",
          "type": "uint256"
        },
        {
          "name": "issuer",
          "type": "address"
        },
        {
          "name": "holder",
          "type": "address"
        }
      ],
      "payable": false,
      "stateMutability": "nonpayable",
      "type": "function",
      "signature": "0x9023d3db"
    }
  ],
  "bytecode": "0x608060405260008060146101000a81548160ff02191690831515021790555034801561002a57600080fd5b50336000806101000a81548173ffffffffffffffffffffffffffffffffffffffff021916908373ffffffffffffffffffffffffffffffffffffffff1602179055506000809054906101000a900473ffffffffffffffffffffffffffffffffffffffff1673ffffffffffffffffffffffffffffffffffffffff16600073ffffffffffffffffffffffffffffffffffffffff167f8be0079c531659141344cd1fd0a4f28419497f9722a3daafe3b4186f6b6457e060405160405180910390a36116d3806100f66000396000f3fe6080604052600436106100a4576000357c0100000000000000000000000000000000000000000000000000000000900463ffffffff1680631b87278d146100a957806321a78f68146100e4578063715018a61461010f5780637d4ee3df1461012657806383206d77146101615780638da5cb5b146101785780638f32d59b146101cf5780639023d3db146101fe578063cb2ae48614610326578063f2fde38b14610402575b600080fd5b3480156100b557600080fd5b506100e2600480360360208110156100cc57600080fd5b8101908080359060200190929190505050610453565b005b3480156100f057600080fd5b506100f9610829565b6040518082815260200191505060405180910390f35b34801561011b57600080fd5b5061012461082f565b005b34801561013257600080fd5b5061015f6004803603602081101561014957600080fd5b8101908080359060200190929190505050610901565b005b34801561016d57600080fd5b50610176610d2e565b005b34801561018457600080fd5b5061018d610db7565b604051808273ffffffffffffffffffffffffffffffffffffffff1673ffffffffffffffffffffffffffffffffffffffff16815260200191505060405180910390f35b3480156101db57600080fd5b506101e4610de0565b604051808215151515815260200191505060405180910390f35b34801561020a57600080fd5b506102376004803603602081101561022157600080fd5b8101908080359060200190929190505050610e37565b60405180868152602001806020018581526020018473ffffffffffffffffffffffffffffffffffffffff1673ffffffffffffffffffffffffffffffffffffffff1681526020018373ffffffffffffffffffffffffffffffffffffffff1673ffffffffffffffffffffffffffffffffffffffff168152602001828103825286818151815260200191508051906020019080838360005b838110156102e75780820151818401526020810190506102cc565b50505050905090810190601f1680156103145780820380516001836020036101000a031916815260200191505b50965050505050505060405180910390f35b34801561033257600080fd5b506103ec6004803603602081101561034957600080fd5b810190808035906020019064010000000081111561036657600080fd5b82018360208201111561037857600080fd5b8035906020019184600183028401116401000000008311171561039a57600080fd5b91908080601f016020809104026020016040519081016040528093929190818152602001838380828437600081840152601f19601f820116905080830192505050505050509192919290505050611131565b6040518082815260200191505060405180910390f35b34801561040e57600080fd5b506104516004803603602081101561042557600080fd5b81019080803573ffffffffffffffffffffffffffffffffffffffff1690602001909291905050506114c8565b005b6002600082815260200190815260200160002060020160019054906101000a900473ffffffffffffffffffffffffffffffffffffffff168073ffffffffffffffffffffffffffffffffffffffff163373ffffffffffffffffffffffffffffffffffffffff1614151561052d576040517f08c379a00000000000000000000000000000000000000000000000000000000081526004018080602001828103825260198152602001807f4163636f756e74206973206e6f7420617574686f72697a65640000000000000081525060200191505060405180910390fd5b816001600281111561053b57fe5b6002600083815260200190815260200160002060020160009054906101000a900460ff16600281111561056a57fe5b1415156105df576040517f08c379a00000000000000000000000000000000000000000000000000000000081526004018080602001828103825260178152602001807f43726564656e7469616c206973206e6f742076616c696400000000000000000081525060200191505060405180910390fd5b600060149054906101000a900460ff1615156107b657600280600085815260200190815260200160002060020160006101000a81548160ff0219169083600281111561062757fe5b02179055506002600084815260200190815260200160002060030160009054906101000a900473ffffffffffffffffffffffffffffffffffffffff1673ffffffffffffffffffffffffffffffffffffffff166002600085815260200190815260200160002060020160019054906101000a900473ffffffffffffffffffffffffffffffffffffffff1673ffffffffffffffffffffffffffffffffffffffff166002600086815260200190815260200160002060010160405180828054600181600116156101000203166002900480156107375780601f10610715576101008083540402835291820191610737565b820191906000526020600020905b815481529060010190602001808311610723575b505091505060405180910390207fc993df28c2f971f840cb563fca1282c743beab17a382422cc48e9fc81222363d866002600089815260200190815260200160002060020160009054906101000a900460ff16600281111561079557fe5b604051808381526020018281526020019250505060405180910390a4610824565b6040517f08c379a00000000000000000000000000000000000000000000000000000000081526004018080602001828103825260108152602001807f456d657267656e6379207374617475730000000000000000000000000000000081525060200191505060405180910390fd5b505050565b60015481565b610837610de0565b151561084257600080fd5b600073ffffffffffffffffffffffffffffffffffffffff166000809054906101000a900473ffffffffffffffffffffffffffffffffffffffff1673ffffffffffffffffffffffffffffffffffffffff167f8be0079c531659141344cd1fd0a4f28419497f9722a3daafe3b4186f6b6457e060405160405180910390a360008060006101000a81548173ffffffffffffffffffffffffffffffffffffffff021916908373ffffffffffffffffffffffffffffffffffffffff160217905550565b6002600082815260200190815260200160002060030160009054906101000a900473ffffffffffffffffffffffffffffffffffffffff168073ffffffffffffffffffffffffffffffffffffffff163373ffffffffffffffffffffffffffffffffffffffff16141515156109dc576040517f08c379a00000000000000000000000000000000000000000000000000000000081526004018080602001828103825260198152602001807f4163636f756e74206973206e6f7420617574686f72697a65640000000000000081525060200191505060405180910390fd5b81600060028111156109ea57fe5b6002600083815260200190815260200160002060020160009054906101000a900460ff166002811115610a1957fe5b141515610a8e576040517f08c379a000000000000000000000000000000000000000000000000000000000815260040180806020018281038252601d8152602001807f43726564656e7469616c20686173206265656e2076616c69646174656400000081525060200191505060405180910390fd5b600060149054906101000a900460ff161515610cbb57336002600085815260200190815260200160002060020160016101000a81548173ffffffffffffffffffffffffffffffffffffffff021916908373ffffffffffffffffffffffffffffffffffffffff16021790555060016002600085815260200190815260200160002060020160006101000a81548160ff02191690836002811115610b2c57fe5b02179055506002600084815260200190815260200160002060030160009054906101000a900473ffffffffffffffffffffffffffffffffffffffff1673ffffffffffffffffffffffffffffffffffffffff166002600085815260200190815260200160002060020160019054906101000a900473ffffffffffffffffffffffffffffffffffffffff1673ffffffffffffffffffffffffffffffffffffffff16600260008681526020019081526020016000206001016040518082805460018160011615610100020316600290048015610c3c5780601f10610c1a576101008083540402835291820191610c3c565b820191906000526020600020905b815481529060010190602001808311610c28575b505091505060405180910390207f33eb881f107da4a2aef188ee43fd91615ef04a36489ecaffa40deb3a40bad291866002600089815260200190815260200160002060020160009054906101000a900460ff166002811115610c9a57fe5b604051808381526020018281526020019250505060405180910390a4610d29565b6040517f08c379a00000000000000000000000000000000000000000000000000000000081526004018080602001828103825260108152602001807f456d657267656e6379207374617475730000000000000000000000000000000081525060200191505060405180910390fd5b505050565b610d36610de0565b1515610d4157600080fd5b600060149054906101000a900460ff1615600060146101000a81548160ff0219169083151502179055507fb80163a972d6d188b018ca173efb8efff6c0744fd37e70a66d7cf75954ee03f4600060149054906101000a900460ff16604051808215151515815260200191505060405180910390a1565b60008060009054906101000a900473ffffffffffffffffffffffffffffffffffffffff16905090565b60008060009054906101000a900473ffffffffffffffffffffffffffffffffffffffff1673ffffffffffffffffffffffffffffffffffffffff163373ffffffffffffffffffffffffffffffffffffffff1614905090565b6000606060008060006002600087815260200190815260200160002060030160009054906101000a900473ffffffffffffffffffffffffffffffffffffffff1673ffffffffffffffffffffffffffffffffffffffff166002600088815260200190815260200160002060020160019054906101000a900473ffffffffffffffffffffffffffffffffffffffff1673ffffffffffffffffffffffffffffffffffffffff16600260008981526020019081526020016000206001016040518082805460018160011615610100020316600290048015610f4b5780601f10610f29576101008083540402835291820191610f4b565b820191906000526020600020905b815481529060010190602001808311610f37575b505091505060405180910390207fa74994836a34e5ebddad615359c477a29c715e4ab9152811637f06a4e34ef26a89600260008c815260200190815260200160002060020160009054906101000a900460ff166002811115610fa957fe5b604051808381526020018281526020019250505060405180910390a4600260008781526020019081526020016000206001018054600181600116156101000203166002900480601f01602080910402602001604051908101604052809291908181526020018280546001816001161561010002031660029004801561106f5780601f106110445761010080835404028352916020019161106f565b820191906000526020600020905b81548152906001019060200180831161105257829003601f168201915b505050505093506002600087815260200190815260200160002060020160009054906101000a900460ff1660028111156110a557fe5b92506002600087815260200190815260200160002060020160019054906101000a900473ffffffffffffffffffffffffffffffffffffffff1691506002600087815260200190815260200160002060030160009054906101000a900473ffffffffffffffffffffffffffffffffffffffff16905085848484849450945094509450945091939590929450565b60008060149054906101000a900460ff1615156114555761115d600180546114e790919063ffffffff16565b60018190555060a06040519081016040528060015481526020018381526020016000600281111561118a57fe5b8152602001600073ffffffffffffffffffffffffffffffffffffffff1681526020013373ffffffffffffffffffffffffffffffffffffffff16815250600260006001548152602001908152602001600020600082015181600001556020820151816001019080519060200190611201929190611602565b5060408201518160020160006101000a81548160ff0219169083600281111561122657fe5b021790555060608201518160020160016101000a81548173ffffffffffffffffffffffffffffffffffffffff021916908373ffffffffffffffffffffffffffffffffffffffff16021790555060808201518160030160006101000a81548173ffffffffffffffffffffffffffffffffffffffff021916908373ffffffffffffffffffffffffffffffffffffffff16021790555090505060026000600154815260200190815260200160002060030160009054906101000a900473ffffffffffffffffffffffffffffffffffffffff1673ffffffffffffffffffffffffffffffffffffffff1660026000600154815260200190815260200160002060020160019054906101000a900473ffffffffffffffffffffffffffffffffffffffff1673ffffffffffffffffffffffffffffffffffffffff1660026000600154815260200190815260200160002060010160405180828054600181600116156101000203166002900480156113cd5780601f106113ab5761010080835404028352918201916113cd565b820191906000526020600020905b8154815290600101906020018083116113b9575b505091505060405180910390207f60dcbb7144aec62d4e99fb852f44ce8fd8d26d2d66fdf0abb14f2232e0394f0460015460026000600154815260200190815260200160002060020160009054906101000a900460ff16600281111561142f57fe5b604051808381526020018281526020019250505060405180910390a460015490506114c3565b6040517f08c379a00000000000000000000000000000000000000000000000000000000081526004018080602001828103825260108152602001807f456d657267656e6379207374617475730000000000000000000000000000000081525060200191505060405180910390fd5b919050565b6114d0610de0565b15156114db57600080fd5b6114e481611508565b50565b60008082840190508381101515156114fe57600080fd5b8091505092915050565b600073ffffffffffffffffffffffffffffffffffffffff168173ffffffffffffffffffffffffffffffffffffffff161415151561154457600080fd5b8073ffffffffffffffffffffffffffffffffffffffff166000809054906101000a900473ffffffffffffffffffffffffffffffffffffffff1673ffffffffffffffffffffffffffffffffffffffff167f8be0079c531659141344cd1fd0a4f28419497f9722a3daafe3b4186f6b6457e060405160405180910390a3806000806101000a81548173ffffffffffffffffffffffffffffffffffffffff021916908373ffffffffffffffffffffffffffffffffffffffff16021790555050565b828054600181600116156101000203166002900490600052602060002090601f016020900481019282601f1061164357805160ff1916838001178555611671565b82800160010185558215611671579182015b82811115611670578251825591602001919060010190611655565b5b50905061167e9190611682565b5090565b6116a491905b808211156116a0576000816000905550600101611688565b5090565b9056fea165627a7a723058208f9178d0afeb14761653ade474677b6d64abb5d2c86628c7cff1d72c0ac3ce640029",
  "source": "pragma solidity ^0.5.0;\n\nimport \"./../../../node_modules/openzeppelin-solidity/contracts/math/SafeMath.sol\";\nimport \"./../../../node_modules/openzeppelin-solidity/contracts/ownership/Ownable.sol\";\n\ncontract Credentials is Ownable {\n\n    //if stopped is true, emergency status is active\n    bool private stopped = false;\n    uint public ref;\n    using SafeMath for uint;\n\n    //Registry of credentials\n    mapping (uint => Credential) internal Registry;\n\n\n    // Possible states of a credential: Pending, Valid and Revoked \n    enum Status {Pending, Valid, Revoked} \n\n    // Credential structure \n    struct Credential {\n        uint ref;\n        string ipfsHash;\n        Status status;\n        address issuer;\n        address holder;\n    } \n \n    // Create events with the same name as each possible State \n    event setEmergencyStatus(bool stopped);\n    event setPending(uint ref, string indexed ipfsHash, uint status, address indexed issuer, address indexed holder);\n    event setValid(uint ref, string indexed ipfsHash, uint status, address indexed issuer, address indexed holder);\n    event setRevoked(uint ref, string indexed ipfsHash, uint status, address indexed issuer, address indexed holder);\n    event fetchCredential (uint ref, string indexed ipfsHash, uint status, address indexed issuer, address indexed holder);\n\n    \n    // CIRCUIT BREAKER - Blocks functions in case of emergency (e.g. a serious bug is found in contract) \n    modifier stopInEmergency {\n        if (!stopped) _;\n        else revert(\"Emergency status\");\n    }\n\n    // modifer that ensures the msg.sender is allowed to execute the function \n    modifier isAllowed (address _address) { \n        require (msg.sender == _address, \"Account is not authorized\"); \n        _;\n    }\n\n    // modifer that ensures if the msg.sender is not allowed to execute the function   \n    modifier notAllowed (address _address) {\n        require (msg.sender != _address, \"Account is not authorized\"); \n        _;\n    }\n\n    // modifier that requires that the credential with the given ref has the given state. \n    modifier isPending (uint _ref) {\n        require(Registry[_ref].status == Status.Pending,\"Credential has been validated\");\n        _;\n    }\n    modifier isValid (uint _ref) {\n        require(Registry[_ref].status == Status.Valid,\"Credential is not valid\");\n        _;\n    }\n    modifier isRevoked (uint _ref) {\n        require(Registry[_ref].status == Status.Revoked,\"Credential is not revoked\");\n        _;\n    }\n    \n    constructor() public {\n    }\n\n    \n    // Changes emergency status of contract \n    function toggleContractActiveStatus() public onlyOwner {\n        stopped = !stopped;\n        emit setEmergencyStatus(stopped);\n    }\n\n    // Creates a new credential \n    function createCredential(string memory _ipfsHash) public stopInEmergency returns (uint) {\n        ref = ref.add(1);\n        Registry[ref] = Credential({ref: ref, ipfsHash: _ipfsHash, status: Status.Pending, issuer: address(0), holder: msg.sender});\n        emit setPending(ref, Registry[ref].ipfsHash, uint(Registry[ref].status), Registry[ref].issuer, Registry[ref].holder);\n        return ref;\n    }\n\n    // Validates a newly created credential - Credentials cannot be validated by credential creator (holder)\n    function issueCredential(uint _ref) public notAllowed(Registry[_ref].holder) isPending(_ref) stopInEmergency {\n        Registry[_ref].issuer = msg.sender;\n        Registry[_ref].status = Status.Valid;\n        emit setValid(_ref, Registry[_ref].ipfsHash, uint(Registry[_ref].status), Registry[_ref].issuer, Registry[_ref].holder);\n    }\n\n    // Revokes a previously validated credential. It can only be performed by the credential validator (issuer) \n    function revokeCredential(uint _ref) public isAllowed(Registry[_ref].issuer) isValid(_ref) stopInEmergency {\n        Registry[_ref].status = Status.Revoked;\n        emit setRevoked(_ref, Registry[_ref].ipfsHash, uint(Registry[_ref].status), Registry[_ref].issuer, Registry[_ref].holder);\n    }\n \n    // Anyone can verify the existence, status and issuer of a specific credential. If credential does not exist, function reverts. \n    function checkCredential(uint _ref) public returns (uint, string memory ipfsHash, uint status, address issuer, address holder) {\n        emit fetchCredential(_ref, Registry[_ref].ipfsHash, uint(Registry[_ref].status), Registry[_ref].issuer, Registry[_ref].holder);\n        ipfsHash = Registry[_ref].ipfsHash;\n        status = uint(Registry[_ref].status);\n        issuer = Registry[_ref].issuer;\n        holder = Registry[_ref].holder;\n        return (_ref, ipfsHash, status, issuer, holder);\n    }\n\n}",
  "sourcePath": "/Users/irenehg/Ethereum/Projects/final-project-ihg/proof-of-credentials/src/ethereum/contracts/Credentials.sol",
  "compiler": {
    "name": "solc",
    "version": "0.5.0+commit.1d4f565a.Emscripten.clang"
  },
  "schemaVersion": "3.0.1",
  "updatedAt": "2019-01-22T18:41:13.900Z",
  "devdoc": {
    "methods": {
      "isOwner()": {
        "return": "true if `msg.sender` is the owner of the contract."
      },
      "owner()": {
        "return": "the address of the owner."
      },
      "renounceOwnership()": {
        "details": "Allows the current owner to relinquish control of the contract."
      },
      "transferOwnership(address)": {
        "details": "Allows the current owner to transfer control of the contract to a newOwner.",
        "params": {
          "newOwner": "The address to transfer ownership to."
        }
      }
    }
  },
  "userdoc": {
    "methods": {
      "renounceOwnership()": {
        "notice": "Renouncing to ownership will leave the contract without an owner. It will not be possible to call the functions with the `onlyOwner` modifier anymore."
      }
    }
  }
}